:020000040800F2
:100000000028002015200008311F0008391F0008B3
:10001000411F0008491F0008511F00080000000090
:10002000000000000000000000000000591F000850
:10003000651F000800000000711F00087D1F0008F8
:100040005D2000085D2000085D2000085D2000089C
:100050005D2000085D2000085D2000085D2000088C
:100060005D2000085D2000085D2000085D2000087C
:100070005D2000085D2000085D2000085D2000086C
:100080005D2000085D2000085D2000085D2000085C
:100090005D2000085D2000085D2000085D2000084C
:1000A0005D2000085D2000085D2000085D2000083C
:1000B0005D200008891F0008000000005D20000886
:1000C0005D20000800000000000000005D20000826
:1000D000000000005D2000085D2000080000000016
:1000E0005D2000085D2000085D2000080000000081
:1000F0000000000000000000000000000000000000
:0C01000000000000000000005FF808F1A3
:1001100010B5054C237833B9044B13B10448AFF341
:1001200000800123237010BD70000020000000003B
:10013000746B000808B5034B1BB103490348AFF3C8
:10014000008008BD0000000074000020746B0008EF
:1001500081F0004102E000BF83F0004330B54FEA78
:1001600041044FEA430594EA050F08BF90EA020FE5
:100170001FBF54EA000C55EA020C7FEA645C7FEA78
:10018000655C00F0E2804FEA5454D4EB5555B8BF9B
:100190006D420CDD2C4480EA020281EA030382EA0C
:1001A000000083EA010180EA020281EA0303362D9E
:1001B00088BF30BD11F0004F4FEA01314FF4801C71
:1001C0004CEA113102D0404261EB410113F0004F83
:1001D0004FEA03334CEA133302D0524263EB43033A
:1001E00094EA050F00F0A780A4F10104D5F1200ED8
:1001F0000DDB02FA0EFC22FA05F2801841F1000133
:1002000003FA0EF2801843FA05F359410EE0A5F106
:1002100020050EF1200E012A03FA0EFC28BF4CF037
:10022000020C43FA05F3C01851EBE37101F00045ED
:1002300007D54FF0000EDCF1000C7EEB00006EEBFA
:100240000101B1F5801F1BD3B1F5001F0CD3490884
:100250005FEA30004FEA3C0C04F101044FEA4452DB
:1002600012F5800F80F09A80BCF1004F08BF5FEA62
:10027000500C50F1000041EB045141EA050130BD42
:100280005FEA4C0C404141EB0101013C28BFB1F554
:10029000801FE9D291F0000F04BF01460020B1FA9F
:1002A00081F308BF2033A3F10B03B3F120020CDA72
:1002B0000C3208DD02F1140CC2F10C0201FA0CF050
:1002C00021FA02F10CE002F11402D8BFC2F1200CB5
:1002D00001FA02F120FA0CFCDCBF41EA0C0190406B
:1002E000E41AA2BF01EB0451294330BD6FEA0404B4
:1002F0001F3C1CDA0C340EDC04F11404C4F120029F
:1003000020FA04F001FA02F340EA030021FA04F3B0
:1003100045EA030130BDC4F10C04C4F1200220FA07
:1003200002F001FA04F340EA0300294630BD21FA45
:1003300004F0294630BD94F0000F83F4801306BF0B
:1003400081F480110134013D4EE77FEA645C18BFFF
:100350007FEA655C29D094EA050F08BF90EA020F96
:1003600005D054EA000C04BF1946104630BD91EA8E
:10037000030F1EBF0021002030BD5FEA545C05D191
:100380004000494128BF41F0004130BD14F58004D0
:100390003CBF01F5801130BD01F0004545F0FE4144
:1003A00041F470014FF0000030BD7FEA645C1ABF79
:1003B000194610467FEA655C1CBF0B46024650EAB0
:1003C000013406BF52EA033591EA030F41F40021DC
:1003D00030BD00BF90F0000F04BF0021704730B562
:1003E0004FF4806404F132044FF000054FF0000137
:1003F00050E700BF90F0000F04BF0021704730B5F8
:100400004FF4806404F1320410F0004548BF4042CC
:100410004FF000013EE700BF42004FEAE2014FEA21
:1004200031014FEA02701FBF12F07F4393F07F4FFC
:1004300081F06051704732F07F4208BF704793F0FF
:100440007F4F04BF41F40021704730B54FF4607412
:1004500001F0004521F000411CE700BF50EA010215
:1004600008BF704730B54FF000050AE050EA0102BE
:1004700008BF704730B511F0004502D5404261EB2E
:1004800041014FF4806404F132045FEA915C3FF46F
:10049000D8AE4FF003025FEADC0C18BF03325FEA0C
:1004A000DC0C18BF033202EBDC02C2F1200300FABD
:1004B00003FC20FA02F001FA03FE40EA0E0021FAE2
:1004C00002F11444BDE600BF70B54FF0FF0C4CF4D0
:1004D000E06C1CEA11541DBF1CEA135594EA0C0F82
:1004E00095EA0C0F00F0DEF82C4481EA030621EABD
:1004F0004C5123EA4C5350EA013518BF52EA0335F8
:1005000041F4801143F4801338D0A0FB02CE4FF0A9
:100510000005E1FB02E506F00042E0FB03E54FF0D9
:100520000006E1FB03569CF0000F18BF4EF0010ED1
:10053000A4F1FF04B6F5007F64F5407404D25FEACD
:100540004E0E6D4146EB060642EAC62141EA555180
:100550004FEAC52040EA5E504FEACE2EB4F1FD0CC2
:1005600088BFBCF5E06F1ED8BEF1004F08BF5FEA40
:10057000500E50F1000041EB045170BD06F00046F2
:1005800046EA010140EA020081EA0301B4EB5C049F
:10059000C2BFD4EB0C0541EA045170BD41F4801197
:1005A0004FF0000E013C00F3AB8014F1360FDEBFBC
:1005B000002001F0004170BDC4F10004203C35DA98
:1005C0000C341BDC04F11404C4F1200500FA05F31B
:1005D00020FA04F001FA05F240EA020001F00042BC
:1005E00021F0004110EBD37021FA04F642EB060132
:1005F0005EEA430E08BF20EAD37070BDC4F10C045C
:10060000C4F1200500FA04F320FA05F001FA04F21F
:1006100040EA020001F0004110EBD37041F100010B
:100620005EEA430E08BF20EAD37070BDC4F1200516
:1006300000FA05F24EEA020E20FA04F301FA05F27E
:1006400043EA020321FA04F001F0004121FA04F226
:1006500020EA020000EBD3705EEA430E08BF20EAF6
:10066000D37070BD94F0000F0FD101F00046400030
:1006700041EB010111F4801F08BF013CF7D041EAB2
:10068000060195F0000F18BF704703F000465200B6
:1006900043EB030313F4801F08BF013DF7D043EA87
:1006A0000603704794EA0C0F0CEA135518BF95EA3D
:1006B0000C0F0CD050EA410618BF52EA4306D1D1C4
:1006C00081EA030101F000414FF0000070BD50EAE3
:1006D000410606BF1046194652EA430619D094EA6D
:1006E0000C0F02D150EA013613D195EA0C0F05D157
:1006F00052EA03361CBF104619460AD181EA0301AB
:1007000001F0004141F0FE4141F470014FF0000062
:1007100070BD41F0FE4141F4780170BD70B54FF0FD
:10072000FF0C4CF4E06C1CEA11541DBF1CEA13557D
:1007300094EA0C0F95EA0C0F00F0A7F8A4EB05045F
:1007400081EA030E52EA03354FEA013100F0888056
:100750004FEA03334FF0805545EA131343EA12631F
:100760004FEA022245EA111545EA10654FEA0026D4
:100770000EF000419D4208BF964244F1FD0404F58D
:10078000407402D25B084FEA3202B61A65EB0305E9
:100790005B084FEA32024FF480104FF4002CB6EBA6
:1007A000020E75EB030E22BFB61A754640EA0C0026
:1007B0005B084FEA3202B6EB020E75EB030E22BF66
:1007C000B61A754640EA5C005B084FEA3202B6EBA7
:1007D000020E75EB030E22BFB61A754640EA9C0066
:1007E0005B084FEA3202B6EB020E75EB030E22BF36
:1007F000B61A754640EADC0055EA060E18D04FEAF4
:10080000051545EA16754FEA06164FEAC30343EA93
:1008100052734FEAC2025FEA1C1CC0D111F4801F60
:100820000BD141EA00014FF000004FF0004CB6E759
:1008300011F4801F04BF01430020B4F1FD0C88BFF8
:10084000BCF5E06F3FF6AFAEB5EB030C04BFB6EB03
:10085000020C5FEA500C50F1000041EB045170BDF6
:100860000EF0004E4EEA113114EB5C04C2BFD4EB23
:100870000C0541EA045170BD41F480114FF0000EA7
:10088000013C90E645EA060E8DE60CEA135594EA23
:100890000C0F08BF95EA0C0F3FF43BAF94EA0C0F26
:1008A0000AD150EA01347FF434AF95EA0C0F7FF49B
:1008B00025AF104619462CE795EA0C0F06D152EAEF
:1008C00003353FF4FDAE1046194622E750EA4106D3
:1008D00018BF52EA43067FF4C5AE50EA41047FF4E4
:1008E0000DAF52EA43057FF4EBAE12E74FF0FF3C49
:1008F00006E000BF4FF0010C02E000BF4FF0010C1A
:100900004DF804CD4FEA410C7FEA6C5C4FEA430C92
:1009100018BF7FEA6C5C1BD001B050EA410C0CBFE1
:1009200052EA430C91EA030F02BF90EA020F002043
:10093000704710F1000F91EA030F58BF994208BFAA
:1009400090422CBFD8176FEAE37040F00100704767
:100950004FEA410C7FEA6C5C02D150EA013C07D1BE
:100960004FEA430C7FEA6C5CD6D152EA033CD3D009
:100970005DF8040B704700BF8446104662468C4603
:100980001946634600E000BF01B5FFF7B7FF002836
:1009900048BF10F1000F01BD4DF808EDFFF7F4FF5F
:1009A0000CBF012000205DF808FB00BF4DF808EDEA
:1009B000FFF7EAFF34BF012000205DF808FB00BF0D
:1009C0004DF808EDFFF7E0FF94BF012000205DF82F
:1009D00008FB00BF4DF808EDFFF7CEFF94BF0120E4
:1009E00000205DF808FB00BF4DF808EDFFF7C4FFDD
:1009F00034BF012000205DF808FB00BF4FEA410C26
:100A00007FEA6C5C02D150EA013C0AD14FEA430C08
:100A10007FEA6C5C02D152EA033C02D14FF0000045
:100A200070474FF0010070474FEA410212F5001283
:100A300015D211D56FF47873B3EB625212D94FEA25
:100A4000C12343F0004343EA505311F0004F23FA0F
:100A500002F018BF404270474FF00000704750EA64
:100A6000013005D111F0004008BF6FF00040704721
:100A70004FF00000704700BF4A0011D212F500127B
:100A800011D20DD56FF47873B3EB62520ED44FEAE6
:100A9000C12343F0004343EA505323FA02F0704766
:100AA0004FF00000704750EA013002D14FF0FF30A4
:100AB00070474FF0000070474FEA4102B2F1E04347
:100AC00024BFB3F5001CDCF1FE5C0DD901F0004C35
:100AD0004FEAC0024CEA5070B2F1004F40EB830085
:100AE00008BF20F00100704711F0804F21D113F1B1
:100AF0003872BCBF01F00040704741F480114FEAEA
:100B00005252C2F11802C2F1200C10FA0CF320FA72
:100B100002F018BF40F001004FEAC1234FEAD3238F
:100B200003FA0CFC40EA0C0023FA02F34FEA4303F9
:100B3000CCE77FEA625307D150EA01331EBF4FF082
:100B4000FE4040F44000704701F0004040F0FE409D
:100B500040F40000704700BF80F0004002E000BF9A
:100B600081F0004142001FBF5FEA410392EA030F98
:100B70007FEA226C7FEA236C6AD04FEA1262D2EBE2
:100B80001363C1BFD218414048404140B8BF5B42E7
:100B9000192B88BF704710F0004F40F4000020F080
:100BA0007F4018BF404211F0004F41F4000121F096
:100BB0007F4118BF494292EA030F3FD0A2F10102E0
:100BC00041FA03FC10EB0C00C3F1200301FA03F11E
:100BD00000F0004302D5494260EB4000B0F5000F41
:100BE00013D3B0F1807F06D340084FEA310102F100
:100BF0000102FE2A51D2B1F1004F40EBC25008BFB2
:100C000020F0010040EA03007047490040EB00007B
:100C1000013A28BFB0F5000FEDD2B0FA80FCACF17C
:100C2000080CB2EB0C0200FA0CF0AABF00EBC250A9
:100C300052421843BCBFD0401843704792F0000F97
:100C400081F4000106BF80F400000132013BB5E7EA
:100C50004FEA41037FEA226C18BF7FEA236C21D060
:100C600092EA030F04D092F0000F08BF08467047C5
:100C700090EA010F1CBF0020704712F07F4F04D193
:100C8000400028BF40F00040704712F100723CBFA6
:100C900000F50000704700F0004343F0FE4040F4D0
:100CA000000070477FEA226216BF08467FEA23638E
:100CB0000146420206BF5FEA412390EA010F40F479
:100CC000800070474FF0000304E000BF10F00043C5
:100CD00048BF40425FEA000C08BF704743F09643AC
:100CE00001464FF000001CE050EA010208BF7047C7
:100CF0004FF000030AE000BF50EA010208BF70474E
:100D000011F0004302D5404261EB41015FEA010C62
:100D100002BF84460146002043F0B64308BFA3F15A
:100D20008053A3F50003BCFA8CF2083AA3EBC2533C
:100D300010DB01FA02FC634400FA02FCC2F120025B
:100D4000BCF1004F20FA02F243EB020008BF20F092
:100D50000100704702F1200201FA02FCC2F12002F8
:100D600050EA4C0021FA02F243EB020008BF20EAED
:100D7000DC7070474FF0FF0C1CEAD0521EBF1CEA1B
:100D8000D15392EA0C0F93EA0C0F6FD01A4480EA09
:100D9000010C400218BF5FEA41211ED04FF00063F2
:100DA00043EA501043EA5111A0FB01310CF000401E
:100DB000B1F5000F3EBF490041EAD3715B0040EA44
:100DC000010062F17F02FD2A1DD8B3F1004F40EB14
:100DD000C25008BF20F00100704790F0000F0CF0E7
:100DE000004C08BF49024CEA502040EA51207F3AAB
:100DF000C2BFD2F1FF0340EAC250704740F4000086
:100E00004FF00003013A5DDC12F1190FDCBF00F076
:100E100000407047C2F10002410021FA02F1C2F124
:100E2000200200FA02FC5FEA310040F1000053EAC0
:100E30004C0308BF20EADC70704792F0000F00F00E
:100E4000004C02BF400010F4000F013AF9D040EA14
:100E50000C0093F0000F01F0004C02BF490011F4A8
:100E6000000F013BF9D041EA0C018FE70CEAD153A6
:100E700092EA0C0F18BF93EA0C0F0AD030F0004C26
:100E800018BF31F0004CD8D180EA010000F00040DA
:100E9000704790F0000F17BF90F0004F084691F098
:100EA000000F91F0004F14D092EA0C0F01D14202D2
:100EB0000FD193EA0C0F03D14B0218BF084608D19B
:100EC00080EA010000F0004040F0FE4040F40000E5
:100ED000704740F0FE4040F4400070474FF0FF0C78
:100EE0001CEAD0521EBF1CEAD15392EA0C0F93EABF
:100EF0000C0F69D0A2EB030280EA010C49024FEA11
:100F0000402037D04FF0805343EA111143EA1013C9
:100F10000CF000408B4238BF5B0042F17D024FF481
:100F2000000C8B4224BF5B1A40EA0C00B3EB510F5C
:100F300024BFA3EB510340EA5C00B3EB910F24BF45
:100F4000A3EB910340EA9C00B3EBD10F24BFA3EBCA
:100F5000D10340EADC001B0118BF5FEA1C1CE0D192
:100F6000FD2A3FF650AF8B4240EBC25008BF20F045
:100F7000010070470CF0004C4CEA50207F32C2BF99
:100F8000D2F1FF0340EAC250704740F400004FF036
:100F90000003013A37E792F0000F00F0004C02BF67
:100FA000400010F4000F013AF9D040EA0C0093F031
:100FB000000F01F0004C02BF490011F4000F013B8B
:100FC000F9D041EA0C0195E70CEAD15392EA0C0FF3
:100FD00008D142027FF47DAF93EA0C0F7FF470AF2B
:100FE000084676E793EA0C0F04D14B023FF44CAF6E
:100FF00008466EE730F0004C18BF31F0004CCAD103
:1010000030F000427FF45CAF31F000437FF43CAF3E
:101010005FE700BF4FF0FF3C06E000BF4FF0010C60
:1010200002E000BF4FF0010C4DF804CD4FEA400242
:101030004FEA41037FEA226C18BF7FEA236C11D08C
:1010400001B052EA530C18BF90EA010F58BFB2EB3F
:10105000030088BFC81738BF6FEAE17018BF40F0BF
:10106000010070477FEA226C02D15FEA402C05D173
:101070007FEA236CE4D15FEA412CE1D05DF8040BF8
:10108000704700BF844608466146FFE70FB5FFF78B
:10109000C9FF002848BF10F1000F0FBD4DF808ED43
:1010A000FFF7F4FF0CBF012000205DF808FB00BF34
:1010B0004DF808EDFFF7EAFF34BF012000205DF88E
:1010C00008FB00BF4DF808EDFFF7E0FF94BF0120DB
:1010D00000205DF808FB00BF4DF808EDFFF7D2FFD8
:1010E00094BF012000205DF808FB00BF4DF808ED1B
:1010F000FFF7C8FF34BF012000205DF808FB00BFE8
:101100004FEA4002B2F1FE4F0FD34FF09E03B3EB14
:1011100012620DD94FEA002343F0004310F0004F54
:1011200023FA02F018BF404270474FF000007047AA
:1011300012F1610F01D1420205D110F0004008BF49
:101140006FF0004070474FF00000704780B500AF6F
:101150001E2000F0E7FF00224FF400511C4801F070
:10116000E7FE01224FF48051194801F0E1FE002210
:101170004FF40061164801F0DBFE00224FF480615D
:10118000134801F0D5FE00224FF40041104801F051
:10119000CFFE01224FF480410D4801F0C9FE00222C
:1011A0004FF480410A4801F0C3FE2821002000F0DE
:1011B00011F80C21002000F00DF80621002000F0AD
:1011C00009F80121002000F005F800BF80BD00BF34
:1011D000000C014080B582B000AF03460A46FB71A7
:1011E0001346BB71022000F09DFFFB79002B06D057
:1011F00001224FF400415A4801F09AFE05E0002216
:101200004FF40041564801F093FE97F90630002B49
:1012100006DA01224FF48061514801F089FE05E0B1
:1012200000224FF480614E4801F082FEBB7903F04A
:101230004003002B06D001224FF40061484801F022
:1012400077FE05E000224FF40061454801F070FE92
:10125000BB7903F02003002B06D001224FF480510C
:101260003F4801F065FE05E000224FF480513C4804
:1012700001F05EFEBB7903F01003002B06D00122C3
:101280004FF40051364801F053FE05E000224FF4C0
:101290000051334801F04CFE01224FF480413048A8
:1012A00001F046FE00224FF480412D4801F040FE3F
:1012B000BB7903F00803002B06D001224FF48061B4
:1012C000274801F035FE05E000224FF480612448F4
:1012D00001F02EFEBB7903F00403002B06D001229F
:1012E0004FF400611E4801F023FE05E000224FF498
:1012F00000611B4801F01CFEBB7903F00203002BC8
:1013000006D001224FF48051154801F011FE05E08E
:1013100000224FF48051124801F00AFEBB7903F01D
:101320000103002B06D001224FF400510C4801F0BC
:10133000FFFD05E000224FF40051094801F0F8FDDF
:1013400001224FF48041064801F0F2FD00224FF4E3
:101350008041034801F0ECFD00BF0837BD4680BD69
:10136000000C014080B582B000AF03463A60FB71CB
:101370000B46BB71BB79032B37D801A252F823F07F
:1013800091130008A1130008B1130008C11300084D
:10139000FB79803BDBB219460020FFF71BFF18E00A
:1013A000FB79403BDBB219460020FFF713FF10E04A
:1013B000FB796C3BDBB219460020FFF70BFF08E01E
:1013C000FB792C3BDBB219460020FFF703FF00BF7F
:1013D0000BE00AE03B6893F90030DBB219460120CC
:1013E000FFF7F8FE3B6801333B603B6893F9003040
:1013F000002BEFD100BF00BF0837BD4680BD00BF46
:10140000B0B58AB000AF3B600346FB710B46BB71C1
:1014100013467B713868FFF773FE03467B62786A78
:10142000FEF7E8FF02460B461046194604F02CFA78
:101430004FF000023F4BFEF791FE02460B4610466E
:1014400019464FF000023B4BFFF7CEFA0346002B44
:1014500015D0786AFEF7CEFF02460B4610461946B5
:1014600004F012FA4FF00002324BFEF777FE02460C
:101470000B4610461946FFF7D7FA034600E0012352
:101480003B62786AFFF722FC034619463868FFF78B
:1014900067FB03461846FEF7BFFF04460D467B79FF
:1014A0001846FEF797FF02460B464FF00000224910
:1014B00004F01CFA02460B4620462946FFF704F8C2
:1014C00002460B4610461946FFF7AEFA0346FB618B
:1014D00007F10C037A6A1949184603F025FD07F154
:1014E0000C02B979FB791846FFF73CFF7B79002B9A
:1014F0001BD0FB790133DBB2B979114A1846FFF7EB
:1015000031FF07F10C03FA690C49184603F00CFD92
:101510003B6ADAB2FB791344DBB20133DBB207F189
:101520000C02B9791846FFF71DFF00BF2837BD46EA
:10153000B0BD00BF0000F03F00002440906B0008E9
:10154000946B000880B500AF01210020FFF742FE38
:1015500000BF80BD80B582B000AF78607B681B683B
:101560005A4A934240F0AE80594B1B78002B1AD157
:101570000021786803F058F80346564A1360544B2C
:1015800001221A707B681B681A6A7B681B6822F04C
:101590000A021A627B681B681A6A7B681B6842F041
:1015A00002021A628EE04A4B1B78012B3AD10021CD
:1015B000786803F039F80346474A1360464B1A68C7
:1015C000444B1B689A420BD3434B1A68414B1B6830
:1015D000D31A1846FFF776FB0346404A13600FE024
:1015E0007B681B68DA6A3B4B1B68D21A3A4B1B6854
:1015F000134401331846FFF765FB0346374A13606F
:101600007B681B681A6A7B681B6822F00A021A62F0
:101610007B681A687B681B68126A1A622C4B02226C
:101620001A704FE02A4B1B78022B4BD100217868AF
:1016300002F0FAFF03462A4A1360254B00221A7073
:10164000274B1A68244B1B689A420BD3244B1A6809
:10165000204B1B68D31A1846FFF734FB0346214A78
:1016600013600FE07B681B68DA6A1A4B1B68D21A9A
:101670001B4B1B68134401331846FFF723FB03463B
:10168000184A1360174B1B684FF000011846FFF70C
:1016900005FD0346002B11D1104B1B68114A12683F
:1016A00011461846FFF71AFC03460F491846FFF784
:1016B00061FB03461A460D4B1A6003E00B4B4FF0DB
:1016C00000021A6000BF0837BD4680BD000400401C
:1016D000580100205C010020640100206801002006
:1016E000600100206C0100200000C8427001002051
:1016F00080B500AF00F0B4FC00F026F900F0A6FAC7
:1017000000F072F900F0AEF900F022FAFFF71EFDCA
:101710007D4802F0DDF908217B4802F075FA0021CE
:101720007A4802F065FB7A4B01225A60784B00221E
:101730009A60774B01221A607549764800F0DAFF0B
:10174000744800F0EBFD4FF47A71724800F0C0FE6F
:10175000704800F0C3FF03469AB26F4B1A806D4881
:1017600000F08AFE6C4B1B881846FEF743FE64A30C
:10177000D3E90023FEF7D2FF02460B461046194676
:101780004FF00002654BFEF79FFE02460B461046E7
:101790001946FFF771F903469AB2614B1A80604B04
:1017A0001B88604A82FB03125211DB17D31A9AB2CC
:1017B0005D4B1A805A4B1A88534B1B68DA63544BA3
:1017C00006221A605249534800F094FF514800F035
:1017D000A5FD4FF47A714F4800F07AFE4D4800F0B5
:1017E0007DFF03469AB2514B1A804A4800F044FEEE
:1017F0004E4B1B881846FEF7FDFD41A3D3E900239D
:10180000FEF78CFF02460B46104619464FF00002C9
:10181000474BFEF759FE02460B4610461946FFF7A6
:101820004BF90346434A1360434A00210020FFF767
:1018300099FD3D4B1B881846FFF744FA03460022EA
:1018400000210D20FFF7DCFD3C4A00211020FFF7AE
:1018500089FD3B4A01210020FFF784FD354B1B68C1
:10186000022201210D20FFF7CBFD2F4B1B88132BEC
:101870008CBF01230023DBB21A464FF4805131485C
:1018800001F056FB284B1B88272B8CBF012300231C
:10189000DBB21A464FF400612A4801F049FB224BA3
:1018A0001B883B2B8CBF01230023DBB21A464FF46D
:1018B0008061244801F03CFB1B4B1B884F2B8CBFE5
:1018C00001230023DBB21A464FF400711D4801F0DA
:1018D0002FFB154B1B88632B8CBF01230023DBB22E
:1018E0001A464FF48071174801F022FB4FF49670AE
:1018F00000F018FCFFF726FE00BF14E7AFF30080EE
:101900000000000000FEAF40BC00002004010020E9
:10191000740100208C000020500100200040BF40D6
:101920004E010020676666664C01002052010020CF
:101930000000144054010020986B0008A86B0008B8
:10194000AC6B00080008014080B594B000AF07F10F
:10195000280328220021184603F006FB07F1140390
:1019600000221A605A609A60DA601A613B1D0022F8
:101970001A605A609A60DA600223BB620123BB637B
:101980001023FB6300237B6407F12803184601F052
:10199000E7FA0346002B01D000F0BAF90F237B6170
:1019A0000023BB610023FB6100233B6200237B62B9
:1019B00007F114030021184601F054FD0346002BE3
:1019C00001D000F0A5F902237B600023FB603B1DE2
:1019D000184601F0C1FE0346002B01D000F098F933
:1019E00000BF5037BD4680BD80B584B000AF3B1D01
:1019F00000221A605A609A60184B194A1A60174BF5
:101A000000229A60154B01221A73144B00221A759A
:101A1000124B4FF46022DA61104B00225A600F4BD8
:101A200001221A610D4800F0A1FB0346002B01D0F2
:101A300000F06EF901237B600123BB600023FB6093
:101A40003B1D1946054800F055FE0346002B01D00A
:101A500000F05EF900BF1037BD4680BD8C0000204D
:101A60000024014080B58EB000AF07F128030022AA
:101A70001A605A609A60DA6007F1200300221A6047
:101A80005A603B1D00221A605A609A60DA601A613F
:101A90005A619A612D4B4FF080421A602B4B002205
:101AA0005A602A4B00229A60284B41F63F72DA6056
:101AB000264B00221A61254B00229A61234801F02F
:101AC000B7FF0346002B01D000F022F94FF48053FA
:101AD000BB6207F1280319461C4802F0DDFC0346EF
:101AE000002B01D000F014F9184802F035F8034635
:101AF000002B01D000F00CF900233B6200237B6235
:101B000007F120031946114803F0A4F90346002BFE
:101B100001D000F0FDF860237B600023BB60002350
:101B2000FB6000237B613B1D08221946074802F039
:101B3000F1FB0346002B01D000F0EAF8034800F067
:101B4000C7F900BF3837BD4680BD00BFBC000020CC
:101B500080B58AB000AF07F1180300221A605A60FE
:101B60009A60DA6007F1100300221A605A603B465F
:101B700000221A605A609A60DA60324B324A1A6068
:101B8000304B00225A602F4B00229A602D4B41F6B9
:101B90003F72DA602B4B00221A612A4B00229A61B5
:101BA000284801F045FF0346002B01D000F0B0F8B3
:101BB0004FF48053BB6107F118031946214802F026
:101BC0006BFC0346002B01D000F0A2F81D4802F088
:101BD000B7F80346002B01D000F09AF800233B61D0
:101BE00000237B6107F110031946164803F032F910
:101BF0000346002B01D000F08BF800233B6001234B
:101C00007B600023BB600023FB603B46002219463B
:101C10000C4802F0E3FA0346002B01D000F078F8FC
:101C200002233B603B4604221946064802F0D6FADE
:101C30000346002B01D000F06BF800BF2837BD46EB
:101C400080BD00BF040100200004004080B588B0C2
:101C500000AF07F1100300221A605A609A60DA6040
:101C6000284B9B69274A43F020039361254B9B69CE
:101C700003F02003FB60FB68224B9B69214A43F081
:101C8000040393611F4B9B6903F00403BB60BB68B3
:101C90001C4B9B691B4A43F008039361194B9B69DA
:101CA00003F008037B607B6800224FF47C411648F8
:101CB00001F03EF900224FF4F851144801F038F9D0
:101CC0004FF47C433B6101237B610023BB61022312
:101CD000FB6107F1100319460B4800F0ADFF4FF40C
:101CE000F8533B6101237B610023BB610223FB614D
:101CF00007F110031946054800F09EFF00BF20378A
:101D0000BD4680BD00100240000C014000080140AB
:101D100080B400AF72B600BF00BFFDE780B485B0ED
:101D200000AF154B9B69144A43F001039361124BBA
:101D30009B6903F00103BB60BB680F4BDB690E4A74
:101D400043F08053D3610C4BDB6903F080537B601D
:101D50007B680A4B5B68FB60FB6823F0E063FB6019
:101D6000FB6843F00073FB60044AFB68536000BFEC
:101D70001437BD4680BC704700100240000001408F
:101D800080B588B000AF786007F1100300221A60B8
:101D90005A609A60DA607B681B68144A934221D1CA
:101DA000134B9B69124A43F400739361104B9B6978
:101DB00003F40073FB60FB680D4B9B690C4A43F016
:101DC000040393610A4B9B6903F00403BB60BB6887
:101DD00042233B6103237B6107F110031946054849
:101DE00000F02AFF00BF2037BD4680BD002401401F
:101DF000001002400008014080B58AB000AF786052
:101E000007F1140300221A605A609A60DA607B6856
:101E10001B68B3F1804F0CD1294BDB69284A43F092
:101E20000103D361264BDB6903F001033B613B698E
:101E300042E07B681B68234A93423DD1204BDB691B
:101E40001F4A43F00203D3611D4BDB6903F0020319
:101E5000FB60FB681A4B9B69194A43F008039361C6
:101E6000174B9B6903F00803BB60BB6830237B61A1
:101E70000023BB610023FB6107F1140319461248DC
:101E800000F0DAFE114B5B687B627B6A23F44063EF
:101E90007B627B6A43F0E0637B627B6A43F40063AE
:101EA0007B620A4A7B6A5360002200211D2000F0F9
:101EB0008CFE1D2000F0A5FE00BF2837BD4680BD6A
:101EC0000010024000040040000C014000000140EE
:101ED00080B588B000AF786007F1100300221A6067
:101EE0005A609A60DA607B681B68B3F1804F17D143
:101EF0000D4B9B690C4A43F0040393610A4B9B69A9
:101F000003F00403FB60FB6804233B6102237B6155
:101F10000223FB6107F110031946044800F08CFE10
:101F200000BF2037BD4680BD0010024000080140C0
:101F300080B400AF00BFFDE780B400AF00BFFDE795
:101F400080B400AF00BFFDE780B400AF00BFFDE785
:101F500080B400AF00BFFDE780B400AF00BFBD4656
:101F600080BC704780B400AF00BFBD4680BC7047E6
:101F700080B400AF00BFBD4680BC704780B500AFE5
:101F800000F0B4F800BF80BD80B500AF024802F099
:101F900035F800BF80BD00BF0401002080B586B0C9
:101FA00000AF7860144A154BD31A7B617B693B61A3
:101FB000134B1B68002B02D1114B124A1A60104BB5
:101FC0001A687B6813443A699A4207D202F0D4FF38
:101FD00003460C221A604FF0FF3309E0084B1B68E0
:101FE000FB60074B1A687B681344054A1360FB6863
:101FF00018461837BD4680BD0028002000040000A8
:1020000080010020D002002080B400AF00BFBD4698
:1020100080BC7047FFF7F8FF0B480C490C4A0023BF
:1020200002E0D458C4500433C4188C42F9D3094A8E
:10203000094C002301E013600432A242FBD302F0FA
:10204000A1FFFFF755FB7047000000207000002043
:10205000686C000870000020D0020020FEE700003D
:1020600080B500AF084B1B68074A43F010031360AC
:10207000032000F09FFD0F2000F008F8FFF74EFE50
:102080000023184680BD00BF0020024080B582B00A
:1020900000AF7860124B1A68124B1B7819464FF448
:1020A0007A73B3FBF1F3B2FBF3F3184600F0B7FD1C
:1020B0000346002B01D001230EE07B680F2B0AD8CA
:1020C000002279684FF0FF3000F07FFD064A7B6800
:1020D0001360002300E0012318460837BD4680BD89
:1020E00000000020080000200400002080B400AFA1
:1020F000054B1B781A46054B1B681344034A1360B3
:1021000000BFBD4680BC704708000020840100204D
:1021100080B400AF024B1B681846BD4680BC7047B8
:102120008401002080B584B000AF7860FFF7F0FF35
:10213000B8607B68FB60FB68B3F1FF3F05D00A4BDA
:102140001B781A46FB681344FB6000BFFFF7E0FFF3
:102150000246BB68D31AFA689A42F7D800BF00BF9C
:102160001037BD4680BD00BF0800002080B586B096
:1021700000AF78600023FB7500233B610023BB6048
:102180000023FB607B68002B01D10123BEE07B684C
:102190009B68002B7B689B6A002B09D17B6800221F
:1021A000DA627B68002283F824207868FFF7E8FD74
:1021B000786800F0F1FB0346FB757B689B6A03F0CF
:1021C0001003002B40F09980FB7D002B40F09580A0
:1021D0007B689B6A23F4885323F0020343F00202D6
:1021E0007B689A627B685A687B68DB691A437B6804
:1021F0001B7B5B001343BA681343BB607B689B681F
:10220000B3F5807F03D07B689B68012B02D14FF42C
:10221000807300E000233A6913433B617B681B7DB8
:10222000012B19D17B681B7B002B09D17B689B6933
:10223000013B5A033B69134343F400633B610BE0EA
:102240007B689B6A43F020027B689A627B68DB6A4A
:1022500043F001027B68DA627B681B685B6823F4E9
:1022600069417B681B683A690A435A607B681B684E
:102270009A68284B13407A681268B9680B439360D8
:102280007B689B68B3F5807F03D07B689B68012BDC
:1022900004D17B681B69013B1B05FB607B681B68E5
:1022A000DB6A23F470017B681B68FA680A43DA6210
:1022B0007B681B689A68184B1340BA689A420BD126
:1022C0007B680022DA627B689B6A23F0030343F099
:1022D00001027B689A6218E07B689B6A23F0120314
:1022E00043F010027B689A627B68DB6A43F001026C
:1022F0007B68DA620123FB7507E07B689B6A43F029
:1023000010027B689A620123FB75FB7D1846183723
:10231000BD4680BDFDF7E1FFFE0E1FFF80B584B016
:1023200000AF78600023FB737B6893F82430012BA7
:1023300001D1022398E07B68012283F82420786889
:1023400000F0D0FA0346FB73FB7B002B40F0878044
:102350007B689B6A23F4407323F0010343F480728B
:102360007B689A627B681B68414A934205D1414B66
:102370005B6803F47023002B15D17B689B6A23F400
:1023800080127B689A627B681B685B6803F48063D9
:10239000002B26D07B689B6A23F4405343F4805281
:1023A0007B689A621DE07B689B6A43F480127B68BD
:1023B0009A627B681B682F4A934204D07B681B6833
:1023C0002B4A93420DD12B4B5B6803F48063002BA7
:1023D00007D07B689B6A23F4405343F480527B68A8
:1023E0009A627B689B6A03F48053002B06D07B685B
:1023F000DB6A23F006027B68DA6202E07B68002277
:10240000DA627B68002283F824207B681B686FF007
:1024100002021A607B681B689B6803F46023B3F5B3
:10242000602F13D17B681B68114A934205D1114B71
:102430005B6803F47023002B08D17B681B689A68E3
:102440007B681B6842F4A0029A600CE07B681B6802
:102450009A687B681B6842F480129A6003E07B688C
:10246000002283F82420FB7B18461037BD4680BD30
:10247000002801400024014080B584B000AF78609E
:102480000023FB737B6893F82430012B01D10223D6
:102490001AE07B68012283F82420786800F07CFA37
:1024A0000346FB73FB7B002B09D17B689B6A23F4FB
:1024B000885323F0010343F001027B689A627B6832
:1024C000002283F82420FB7B18461037BD4680BDD0
:1024D00090B587B000AF7860396000237B6100233E
:1024E000FB6000233B61FFF713FE78617B681B688C
:1024F0009B6803F48073002B0BD07B689B6A43F0CE
:1025000020027B689A627B68002283F824200123E2
:10251000D3E07B681B685B6803F48073002B31D1C8
:102520007B681B68DB6A03F47003002B2AD121E06F
:102530003B68B3F1FF3F1DD03B68002B07D0FFF78E
:10254000E7FD02467B69D31A3A689A4212D27B6849
:102550001B681B6803F00203002B0BD17B689B6A8E
:1025600043F004027B689A627B68002283F824208F
:102570000323A2E07B681B681B6803F00203002BA7
:10258000D6D070E04F4B1C68022001F09BF9034647
:10259000B4FBF3F27B681B6819694B4B0B40002BB3
:1025A00018D17B681B68D968484B0B40002B11D1B0
:1025B0007B681B681969464B0B40002B08D17B6870
:1025C0001B68D968434B0B40002B01D1142320E03A
:1025D00029231EE07B681B6819693D4B0B40002BCB
:1025E00006D17B681B68D9683A4B0B40002B0DD095
:1025F0007B681B681969384B0B40002B08D17B683E
:102600001B68D968344B0B40002B01D1542300E0E8
:10261000FC2302FB03F33B6121E03B68B3F1FF3F86
:102620001AD03B68002B07D0FFF772FD02467B698A
:10263000D31A3A689A420FD2FB683A699A420BD988
:102640007B689B6A43F004027B689A627B68002285
:1026500083F82420032330E0FB680133FB60FB6830
:102660003A699A42D9D87B681B686FF012021A60E7
:102670007B689B6A43F400727B689A627B681B6884
:102680009B6803F46023B3F5602F15D17B681B7B37
:10269000002B11D17B689B6A23F480727B689A625D
:1026A0007B689B6A03F48053002B05D17B689B6A8F
:1026B00043F001027B689A62002318461C37BD462E
:1026C00090BD00BF000000202449922424499200BC
:1026D00092244912922449004992240080B483B084
:1026E00000AF78607B681B68DB6C18460C37BD4612
:1026F00080BC704780B485B000AF7860396000233B
:10270000FB730023BB607B6893F82430012B01D15D
:102710000223DCE07B68012283F824203B685B68AD
:10272000062B1CD87B681B68596B3B685A6813469C
:102730009B001344053B1F2202FA03F3DB431940BD
:102740003B6818683B685A6813469B001344053B76
:1027500000FA03F27B681B680A435A633CE03B685B
:102760005B680C2B1CD87B681B68196B3B685A682C
:1027700013469B001344233B1F2202FA03F3DB435F
:1027800019403B6818683B685A6813469B0013441D
:10279000233B00FA03F27B681B680A431A631BE0C1
:1027A0007B681B68D96A3B685A6813469B001344D0
:1027B000413B1F2202FA03F3DB4319403B681868D0
:1027C0003B685A6813469B001344413B00FA03F2EE
:1027D0007B681B680A43DA623B681B68092B1CD9BB
:1027E0007B681B68D9683B681A6813465B00134412
:1027F0001E3B072202FA03F3DB4319403B6898684B
:102800003B681A6813465B0013441E3B00FA03F250
:102810007B681B680A43DA6019E07B681B681969EA
:102820003B681A6813465B001344072202FA03F35D
:10283000DB4319403B6898683B681A6813465B00A5
:10284000134400FA03F27B681B680A431A613B6871
:102850001B68102B03D03B681B68112B32D17B689F
:102860001B681D4A934225D17B681B689B6803F453
:102870000003002B26D17B681B689A687B681B6865
:1028800042F400029A603B681B68102B1AD1134B6C
:102890001B68134AA2FB03239A0C13469B001344A4
:1028A0005B00BB6002E0BB68013BBB60BB68002B08
:1028B000F9D107E07B689B6A43F020027B689A624B
:1028C0000123FB737B68002283F82420FB7B1846DE
:1028D0001437BD4680BC7047002401400000002032
:1028E00083DE1B4380B584B000AF78600023FB60BB
:1028F0000023BB607B681B689B6803F00103012B0E
:1029000040D07B681B689A687B681B6842F00102B4
:102910009A601F4B1B681F4AA2FB03239B0CBB60E2
:1029200002E0BB68013BBB60BB68002BF9D1FFF73D
:10293000EFFBF8601FE0FFF7EBFB0246FB68D31AE2
:10294000022B18D97B681B689B6803F00103012BDD
:1029500011D07B689B6A43F010027B689A627B68A7
:10296000DB6A43F001027B68DA627B68002283F84D
:102970002420012307E07B681B689B6803F00103A8
:10298000012BD8D1002318461037BD4680BD00BFAB
:102990000000002083DE1B4380B584B000AF786068
:1029A0000023FB607B681B689B6803F00103012B1D
:1029B0002ED17B681B689A687B681B6822F0010235
:1029C0009A60FFF7A5FBF8601BE0FFF7A1FB02464A
:1029D000FB68D31A022B14D97B681B689B6803F031
:1029E0000103012B0DD17B689B6A43F010027B68C9
:1029F0009A627B68DB6A43F001027B68DA6201233A
:102A000007E07B681B689B6803F00103012BDCD0A7
:102A1000002318461037BD4680BD000080B485B045
:102A200000AF78607B6803F00703FB600C4BDB684A
:102A3000BB60BA684FF6FF031340BB60FB681A0225
:102A4000BB68134343F0BF6343F40033BB60044AE5
:102A5000BB68D36000BF1437BD4680BC704700BF61
:102A600000ED00E080B400AF044BDB681B0A03F00C
:102A700007031846BD4680BC704700BF00ED00E06C
:102A800080B483B000AF0346FB7197F90730002B89
:102A90000BDBFB7903F01F02064997F907305B094E
:102AA000012000FA02F241F8232000BF0C37BD4696
:102AB00080BC704700E100E080B483B000AF034603
:102AC0003960FB7197F90730002B0ADB3B68DAB2FB
:102AD0000C4997F907301201D2B20B4483F8002356
:102AE0000AE03B68DAB20849FB7903F00F03043BC4
:102AF0001201D2B20B441A7600BF0C37BD4680BC1F
:102B0000704700BF00E100E000ED00E080B489B054
:102B100000AFF860B9607A60FB6803F00703FB61FF
:102B2000FB69C3F10703042B28BF0423BB61FB69C6
:102B30000433062B02D9FB69033B00E000237B61D1
:102B40004FF0FF32BB6902FA03F3DA43BB681A4065
:102B50007B699A404FF0FF317B6901FA03F3D94357
:102B60007B680B40134318462437BD4680BC704732
:102B700080B582B000AF78607B68013BB3F1807FA5
:102B800001D301230FE00A4A7B68013B53600F2108
:102B90004FF0FF30FFF790FF054B00229A60044B87
:102BA00007221A60002318460837BD4680BD00BFC3
:102BB00010E000E080B582B000AF78607868FFF781
:102BC0002DFF00BF0837BD4680BD80B586B000AF81
:102BD0000346B9607A60FB7300237B61FFF742FF15
:102BE00078617A68B9687869FFF790FF024697F9CB
:102BF0000F3011461846FFF75FFF00BF1837BD467C
:102C000080BD80B582B000AF0346FB7197F90730F5
:102C10001846FFF735FF00BF0837BD4680BD80B5B9
:102C200082B000AF78607868FFF7A2FF03461846CD
:102C30000837BD4680BD000080B48BB000AF78601F
:102C4000396000237B6200233B6261E101227B6AE1
:102C500002FA03F3FB613B681B68FA691340BB612E
:102C6000BA69FB699A4240F050813B685B68974AB9
:102C700093425ED0954A934275D8954A934258D074
:102C8000934A93426FD8934A934252D0914A9342C7
:102C900069D8914A93424CD08F4A934263D88F4A65
:102CA000934246D08D4A93425DD8122B2AD8122BDC
:102CB00059D801A252F823F0332D00080D2D000839
:102CC0001F2D0008612D0008672D0008672D0008E2
:102CD000672D0008672D0008672D0008672D000884
:102CE000672D0008672D0008672D0008672D000874
:102CF000672D0008672D0008672D0008152D0008B6
:102D0000292D0008764A934213D02CE03B68DB68FB
:102D10003B6229E03B68DB6804333B6224E03B68AC
:102D2000DB6808333B621FE03B68DB680C333B62C7
:102D30001AE03B689B68002B02D104233B6213E03E
:102D40003B689B68012B05D108233B627B68FA69CD
:102D50001A6109E008233B627B68FA695A6103E063
:102D600000233B6200E000BFBB69FF2B01D87B68FA
:102D700001E07B6804337B61BB69FF2B02D87B6A6F
:102D80009B0002E07B6A083B9B003B617B691A6801
:102D90000F213B6901FA03F3DB431A40396A3B69AF
:102DA00001FA03F31A437B691A603B685B6803F01E
:102DB0008053002B00F0A9804A4B9B69494A43F09D
:102DC00001039361474B9B6903F00103BB60BB6840
:102DD000454A7B6A9B08023352F82330FB607B6ACA
:102DE00003F003039B000F2202FA03F3DB43FA68AC
:102DF0001340FB607B683D4A93420DD07B683C4AA0
:102E0000934207D07B683B4A934201D1022304E0FE
:102E1000032302E0012300E000237A6A02F00302A8
:102E200092009340FA681343FB602F497B6A9B082A
:102E30000233FA6841F823203B685B6803F480138F
:102E4000002B06D02C4B9A682B49BB6913438B602F
:102E500006E0294B9A68BB69DB43274913408B6026
:102E60003B685B6803F40013002B06D0224BDA6842
:102E70002149BB691343CB6006E01F4BDA68BB698D
:102E8000DB431D491340CB603B685B6803F40033B0
:102E9000002B06D0184B5A681749BB6913434B6087
:102EA00006E0154B5A68BB69DB43134913404B607E
:102EB0003B685B6803F48033002B1FD00E4B1A680D
:102EC0000D49BB6913430B601FE000BF00003210C7
:102ED000000031100000221000002110000012102C
:102EE00000001110001002400000014000080140E5
:102EF000000C014000100140000401400B4B1A6817
:102F0000BB69DB43094913400B607B6A01337B6279
:102F10003B681A687B6A22FA03F3002B7FF496AEB3
:102F200000BF00BF2C37BD4680BC70470004014085
:102F300080B483B000AF78600B467B8013467B7013
:102F40007B78002B03D07A887B681A6103E07B884A
:102F50001A047B681A6100BF0C37BD4680BC7047FD
:102F600080B586B000AF78607B68002B01D101236B
:102F700072E27B681B6803F00103002B00F087807E
:102F8000924B5B6803F00C03042B0CD08F4B5B68F7
:102F900003F00C03082B12D18C4B5B6803F48033D5
:102FA000B3F5803F0BD1894B1B6803F40033002B32
:102FB0006CD07B685B68002B68D101234CE27B6896
:102FC0005B68B3F5803F06D1804B1B687F4A43F4B2
:102FD000803313602EE07B685B68002B0CD17B4B49
:102FE0001B687A4A23F480331360784B1B68774A56
:102FF00023F4802313601DE07B685B68B3F5A02F8A
:103000000CD1724B1B68714A43F4802313606F4BE1
:103010001B686E4A43F4803313600BE06B4B1B68F4
:103020006A4A23F480331360684B1B68674A23F4B1
:10303000802313607B685B68002B13D0FFF768F870
:10304000386108E0FFF764F802463B69D31A642B45
:1030500001D9032300E25D4B1B6803F40033002B0E
:10306000F0D014E0FFF754F8386108E0FFF750F8AB
:1030700002463B69D31A642B01D90323ECE1534B7D
:103080001B6803F40033002BF0D100E000BF7B6825
:103090001B6803F00203002B63D04C4B5B6803F00A
:1030A0000C03002B0BD0494B5B6803F00C03082B7F
:1030B0001CD1464B5B6803F48033002B16D1434B85
:1030C0001B6803F00203002B05D07B681B69012BF2
:1030D00001D00123C0E13D4B1B6823F0F8027B685F
:1030E0005B69DB00394913430B603AE07B681B697D
:1030F000002B20D0364B01221A60FFF709F8386107
:1031000008E0FFF705F802463B69D31A022B01D904
:103110000323A1E12D4B1B6803F00203002BF0D029
:103120002A4B1B6823F0F8027B685B69DB002749A8
:1031300013430B6015E0264B00221A60FEF7E8FFF0
:10314000386108E0FEF7E4FF02463B69D31A022B20
:1031500001D9032380E11D4B1B6803F00203002B00
:10316000F0D17B681B6803F00803002B3AD07B6822
:103170009B69002B19D0174B01221A60FEF7C8FF7C
:10318000386108E0FEF7C4FF02463B69D31A022B00
:1031900001D9032360E10D4B5B6A03F00203002BAE
:1031A000F0D0012000F0BAFA1CE00A4B00221A60AD
:1031B000FEF7AEFF38610FE0FEF7AAFF02463B695B
:1031C000D31A022B08D9032346E100BF00100240A6
:1031D0000000424280044242924B5B6A03F00203C9
:1031E000002BE9D17B681B6803F00403002B00F07F
:1031F000A6800023FB758B4BDB6903F08053002B0B
:103200000DD1884BDB69874A43F08053D361854BEE
:10321000DB6903F08053BB60BB680123FB75824B05
:103220001B6803F48073002B18D17F4B1B687E4A08
:1032300043F480731360FEF76BFF386108E0FEF71C
:1032400067FF02463B69D31A642B01D9032303E1CC
:10325000754B1B6803F48073002BF0D07B68DB6830
:10326000012B06D16F4B1B6A6E4A43F001031362B8
:103270002DE07B68DB68002B0CD16A4B1B6A694A26
:1032800023F001031362674B1B6A664A23F00403B1
:1032900013621CE07B68DB68052B0CD1614B1B6A59
:1032A000604A43F0040313625E4B1B6A5D4A43F0BD
:1032B000010313620BE05B4B1B6A5A4A23F00103C4
:1032C0001362584B1B6A574A23F0040313627B684E
:1032D000DB68002B15D0FEF71BFF38610AE0FEF714
:1032E00017FF02463B69D31A41F28832934201D953
:1032F0000323B1E04B4B1B6A03F00203002BEED01B
:1033000014E0FEF705FF38610AE0FEF701FF024610
:103310003B69D31A41F28832934201D903239BE0DF
:10332000404B1B6A03F00203002BEED1FB7D012B07
:1033300005D13C4BDB693B4A23F08053D3617B686A
:10334000DB69002B00F08780364B5B6803F00C03D1
:10335000082B61D07B68DB69022B46D1334B0022FE
:103360001A60FEF7D5FE386108E0FEF7D1FE02468E
:103370003B69D31A022B01D903236DE0294B1B684B
:1033800003F00073002BF0D17B681B6AB3F5803F1C
:1033900008D1244B5B6823F400327B689B68214989
:1033A00013434B601F4B5B6823F474127B68196AEC
:1033B0007B685B6A0B431B4913434B601B4B012229
:1033C0001A60FEF7A5FE386108E0FEF7A1FE02468E
:1033D0003B69D31A022B01D903233DE0114B1B6833
:1033E00003F00073002BF0D035E0104B00221A6080
:1033F000FEF78EFE386108E0FEF78AFE02463B6962
:10340000D31A022B01D9032326E0064B1B6803F0D5
:103410000073002BF0D11EE07B68DB69012B07D124
:10342000012319E000100240007000406000424299
:103430000B4B5B68FB60FB6803F480327B681B6AA4
:103440009A4206D1FB6803F470127B685B6A9A4269
:1034500001D0012300E0002318461837BD4680BD87
:103460000010024080B584B000AF786039607B689E
:10347000002B01D10123D0E06A4B1B6803F0070346
:103480003A689A4210D9674B1B6823F007026549D6
:103490003B6813430B60634B1B6803F007033A68F8
:1034A0009A4201D00123B8E07B681B6803F0020355
:1034B000002B20D07B681B6803F00403002B05D091
:1034C000594B5B68584A43F4E06353607B681B6860
:1034D00003F00803002B05D0534B5B68524A43F4BA
:1034E00060535360504B5B6823F0F0027B689B682D
:1034F0004D4913434B607B681B6803F00103002BAD
:1035000040D07B685B68012B07D1474B1B6803F4F5
:103510000033002B15D101237FE07B685B68022B11
:1035200007D1414B1B6803F00073002B09D1012325
:1035300073E03D4B1B6803F00203002B01D1012314
:103540006BE0394B5B6823F003027B685B683649AC
:1035500013434B60FEF7DCFDF8600AE0FEF7D8FD90
:103560000246FB68D31A41F28832934201D9032301
:1035700053E02D4B5B6803F00C027B685B689B009B
:103580009A42EBD1274B1B6803F007033A689A4233
:1035900010D2244B1B6823F0070222493B681343D7
:1035A0000B60204B1B6803F007033A689A4201D076
:1035B000012332E07B681B6803F00403002B08D072
:1035C000194B5B6823F4E0627B68DB6816491343A0
:1035D0004B607B681B6803F00803002B09D0124B7B
:1035E0005B6823F460527B681B69DB000E49134360
:1035F0004B6000F021F802460B4B5B681B0903F09F
:103600000F030A49CB5C22FA03F3094A1360094B02
:103610001B681846FEF73AFD002318461037BD46D2
:1036200080BD00BF0020024000100240BC6B0008BB
:10363000000000200400002080B487B000AF002309
:10364000FB600023BB6000237B6100237B600023C1
:103650003B611E4B5B68FB60FB6803F00C03042BB3
:1036600002D0082B03D027E0194B3B6127E0FB6811
:103670009B0C03F00F03174AD35C7B60FB6803F4D9
:103680008033002B10D0114B5B685B0C03F00103FF
:10369000114AD35CBB607B680D4A03FB02F2BB6836
:1036A000B2FBF3F37B6104E07B680C4A02FB03F39B
:1036B0007B617B693B6102E0054B3B6100BF3B697D
:1036C00018461C37BD4680BC704700BF0010024042
:1036D00000127A00D46B0008E46B000800093D007A
:1036E00080B400AF024B1B681846BD4680BC7047D3
:1036F0000000002080B500AFFFF7F2FF0246054B47
:103700005B68DB0A03F007030349CB5C22FA03F38F
:10371000184680BD00100240CC6B000880B485B014
:1037200000AF78600A4B1B680A4AA2FB03235B0ABE
:103730007A6802FB03F3FB6000BFFB685A1EFA6065
:10374000002BF9D100BF00BF1437BD4680BC7047C5
:1037500000000020D34D621080B586B000AF7860C5
:1037600000233B610023FB607B681B6803F00103BF
:10377000002B7DD00023FB754F4BDB6903F080539A
:10378000002B0DD14C4BDB694B4A43F08053D36186
:10379000494BDB6903F08053BB60BB680123FB75B9
:1037A000464B1B6803F48073002B18D1434B1B68F6
:1037B000424A43F480731360FEF7AAFC386108E0C4
:1037C000FEF7A6FC02463B69D31A642B01D90323FA
:1037D0006DE03A4B1B6803F48073002BF0D0364B3E
:1037E0001B6A03F44073FB60FB68002B2ED07B68E0
:1037F0005B6803F44073FA689A4227D02E4B1B6A29
:1038000023F44073FB602E4B01221A602C4B0022E4
:103810001A60294AFB681362FB6803F00103002B5E
:1038200014D0FEF775FC38610AE0FEF771FC024621
:103830003B69D31A41F28832934201D9032336E01F
:103840001D4B1B6A03F00203002BEED01A4B1B6AC0
:1038500023F440727B685B68174913430B62FB7D5E
:10386000012B05D1144BDB69134A23F08053D3613C
:103870007B681B6803F00203002B08D00E4B5B68CB
:1038800023F440427B689B680B4913434B607B6881
:103890001B6803F01003002B08D0074B5B6823F470
:1038A00080027B68DB68044913434B6000231846A1
:1038B0001837BD4680BD00BF0010024000700040B8
:1038C0004004424280B588B000AF786000237B613D
:1038D0000023FB6100233B610023FB600023BB61ED
:1038E0007B68102B0AD07B68102B00F28A807B68E3
:1038F000012B45D07B68022B75D082E0464B5B687C
:10390000FB60454B1B6803F08073002B7BD0FB688A
:103910009B0C03F00F03414AD35C3B61FB6803F44B
:103920008033002B15D03C4B5B685B0C03F001032C
:103930003B4AD35C7B61FB6803F48033002B0DD0E2
:10394000384A7B69B2FBF3F23B6902FB03F3FB618C
:1039500004E03B69344A02FB03F3FB612E4B5B68D6
:1039600003F48003B3F5800F02D1FB69BB614AE029
:10397000FB695B002D4AA2FB03235B08BB6142E0AD
:10398000254B1B6AFB60FB6803F44073B3F5807F33
:1039900008D1FB6803F00203002B03D04FF400436F
:1039A000BB611FE0FB6803F44073B3F5007F09D1EE
:1039B000194B5B6A03F00203002B03D049F6404326
:1039C000BB610FE0FB6803F44073B3F5407F1CD18B
:1039D000114B1B6803F40033002B16D04FF2244325
:1039E000BB6112E011E0FFF785FE02460A4B5B68FF
:1039F0009B0B03F0030301335B00B2FBF3F3BB61EA
:103A000004E000BF02E000BF00E000BFBB69184651
:103A10002037BD4680BD00BF00100240E86B0008A3
:103A2000F86B000800127A0000093D00ABAAAAAAB0
:103A300080B582B000AF78607B68002B01D1012394
:103A400041E07B6893F83D30DBB2002B06D17B6808
:103A5000002283F83C207868FEF7CEF97B680222CA
:103A600083F83D207B681A687B680433194610464A
:103A700000F042FE7B68012283F846207B68012229
:103A800083F83E207B68012283F83F207B68012277
:103A900083F840207B68012283F841207B68012263
:103AA00083F842207B68012283F843207B6801224F
:103AB00083F844207B68012283F845207B6801223B
:103AC00083F83D20002318460837BD4680BD00001E
:103AD00080B485B000AF78607B6893F83D30DBB28E
:103AE000012B01D001232DE07B68022283F83D20C9
:103AF0007B681B68164A934209D07B681B68B3F148
:103B0000804F04D07B681B68124A934211D17B68B6
:103B10001B689B6803F00703FB60FB68062B10D053
:103B20007B681B681A687B681B6842F001021A6098
:103B300007E07B681B681A687B681B6842F001021B
:103B40001A60002318461437BD4680BC704700BF7A
:103B5000002C01400004004080B582B000AF7860C6
:103B60007B68002B01D1012341E07B6893F83D3055
:103B7000DBB2002B06D17B68002283F83C207868FA
:103B800000F039F87B68022283F83D207B681A68D0
:103B90007B6804331946104600F0AEFD7B680122B5
:103BA00083F846207B68012283F83E207B6801224F
:103BB00083F83F207B68012283F840207B68012244
:103BC00083F841207B68012283F842207B68012230
:103BD00083F843207B68012283F844207B6801221C
:103BE00083F845207B68012283F83D200023184696
:103BF0000837BD4680BD80B483B000AF786000BF99
:103C00000C37BD4680BC704780B584B000AF78608B
:103C100039603B68002B09D17B6893F83E30DBB2FA
:103C2000012B14BF01230023DBB222E03B68042BED
:103C300009D17B6893F83F30DBB2012B14BF01231D
:103C40000023DBB215E03B68082B09D17B6893F8B1
:103C50004030DBB2012B14BF01230023DBB208E0AC
:103C60007B6893F84130DBB2012B14BF01230023A2
:103C7000DBB2002B01D0012359E03B68002B04D1BB
:103C80007B68022283F83E2013E03B68042B04D1BA
:103C90007B68022283F83F200BE03B68082B04D1AD
:103CA0007B68022283F8402003E07B68022283F8CD
:103CB00041207B681B6801223968184601F0A5F88D
:103CC0007B681B681C4A934207D17B681B685A6C4F
:103CD0007B681B6842F400425A647B681B68164A82
:103CE000934209D07B681B68B3F1804F04D07B6896
:103CF0001B68124A934211D17B681B689B6803F0D2
:103D00000703FB60FB68062B10D07B681B681A68F2
:103D10007B681B6842F001021A6007E07B681B6841
:103D20001A687B681B6842F001021A60002318467B
:103D30001037BD4680BD00BF002C0140000400408C
:103D400080B582B000AF78607B68002B01D1012381
:103D500041E07B6893F83D30DBB2002B06D17B68F5
:103D6000002283F83C20786800F039F87B68022252
:103D700083F83D207B681A687B6804331946104637
:103D800000F0BAFC7B68012283F846207B680122A0
:103D900083F83E207B68012283F83F207B68012264
:103DA00083F840207B68012283F841207B68012250
:103DB00083F842207B68012283F843207B6801223C
:103DC00083F844207B68012283F845207B68012228
:103DD00083F83D20002318460837BD4680BD80B4D7
:103DE00083B000AF786000BF0C37BD4680BC704721
:103DF00080B584B000AF786039600023FB733B6806
:103E0000002B04D17B6893F83E30DBB213E03B68B3
:103E1000042B04D17B6893F83F30DBB20BE03B68A6
:103E2000082B04D17B6893F84030DBB203E07B6859
:103E300093F84130DBB2BB733B68002B04D17B6845
:103E400093F84230DBB213E03B68042B04D17B686B
:103E500093F84330DBB20BE03B68082B04D17B685E
:103E600093F84430DBB203E07B6893F84530DBB273
:103E70007B73BB7B012B02D17B7B012B01D0012308
:103E8000B3E03B68002B04D17B68022283F83E201C
:103E900013E03B68042B04D17B68022283F83F20A7
:103EA0000BE03B68082B04D17B68022283F840209A
:103EB00003E07B68022283F841203B68002B04D199
:103EC0007B68022283F8422013E03B68042B04D174
:103ED0007B68022283F843200BE03B68082B04D167
:103EE0007B68022283F8442003E07B68022283F887
:103EF00045203B680C2B41D801A252F823F000BFAB
:103F0000353F00087D3F00087D3F00087D3F0008E9
:103F1000473F00087D3F00087D3F00087D3F0008C7
:103F2000593F00087D3F00087D3F00087D3F0008A5
:103F30006B3F00087B681B68DA687B681B6842F08F
:103F40000202DA601DE07B681B68DA687B681B6828
:103F500042F00402DA6014E07B681B68DA687B6870
:103F60001B6842F00802DA600BE07B681B68DA68C5
:103F70007B681B6842F01002DA6002E00123FB73E9
:103F800000BFFB7B002B2FD17B681B6801223968A7
:103F9000184600F03AFF7B681B68164A934209D026
:103FA0007B681B68B3F1804F04D07B681B68124AA2
:103FB000934211D17B681B689B6803F00703BB60C9
:103FC000BB68062B10D07B681B681A687B681B686F
:103FD00042F001021A6007E07B681B681A687B6880
:103FE0001B6842F001021A60FB7B18461037BD4681
:103FF00080BD00BF002C01400004004080B584B0AB
:1040000000AF78607B681B68DB68FB607B681B68BF
:104010001B69BB60BB6803F00203002B20D0FB6868
:1040200003F00203002B1BD07B681B686FF00202B9
:104030001A617B6801221A777B681B689B6903F011
:104040000303002B03D07868FDF784FA05E0786855
:1040500000F037FB786800F03DFB7B6800221A77A0
:10406000BB6803F00403002B20D0FB6803F00403BB
:10407000002B1BD07B681B686FF004021A617B6801
:1040800002221A777B681B689B6903F44073002B3C
:1040900003D07868FDF75EFA05E0786800F011FB60
:1040A000786800F017FB7B6800221A77BB6803F082
:1040B0000803002B20D0FB6803F00803002B1BD063
:1040C0007B681B686FF008021A617B6804221A770C
:1040D0007B681B68DB6903F00303002B03D078685F
:1040E000FDF738FA05E0786800F0EBFA786800F040
:1040F000F1FA7B6800221A77BB6803F01003002BEB
:1041000020D0FB6803F01003002B1BD07B681B68DA
:104110006FF010021A617B6808221A777B681B68AF
:10412000DB6903F44073002B03D07868FDF712FAC3
:1041300005E0786800F0C5FA786800F0CBFA7B6893
:1041400000221A77BB6803F00103002B0CD0FB6838
:1041500003F00103002B07D07B681B686FF001029E
:104160001A61786800F0A4FABB6803F08003002BA2
:104170000CD0FB6803F08003002B07D07B681B6822
:104180006FF080021A61786800F0C5FEBB6803F02A
:104190004003002B0CD0FB6803F04003002B07D03A
:1041A0007B681B686FF040021A61786800F09BFA28
:1041B000BB6803F02003002B0CD0FB6803F0200346
:1041C000002B07D07B681B686FF020021A617868AB
:1041D00000F098FE00BF1037BD4680BD80B586B0A8
:1041E00000AFF860B9607A600023FB75FB6893F854
:1041F0003C30012B01D1022388E0FB68012283F8C7
:104200003C207B68002B1BD1FB681868BB681968D1
:10421000BB685A68BB68DB6800F05AFCFB681B6827
:104220009A69FB681B6822F00C029A61FB681B68A4
:104230009969BB689A68FB681B680A439A6160E0E9
:104240007B68042B1CD1FB681868BB681968BB68C5
:104250005A68BB68DB6800F0BDFCFB681B689A69A4
:10426000FB681B6822F440629A61FB681B689969CD
:10427000BB689B681A02FB681B680A439A6140E0AE
:104280007B68082B1BD1FB681868BB681968BB6882
:104290005A68BB68DB6800F008FDFB681B68DA69D8
:1042A000FB681B6822F00C02DA61FB681B68D969A5
:1042B000BB689A68FB681B680A43DA6121E07B6887
:1042C0000C2B1CD1FB681868BB681968BB685A685E
:1042D000BB68DB6800F024FDFB681B68DA69FB68DB
:1042E0001B6822F44062DA61FB681B68D969BB680D
:1042F0009B681A02FB681B680A43DA6101E001232C
:10430000FB75FB68002283F83C20FB7D18461837BC
:10431000BD4680BD80B586B000AFF860B9607A60F8
:104320000023FB75FB6893F83C30012B01D102237D
:10433000AEE0FB68012283F83C207B680C2B00F286
:104340009F8001A252F823F07D43000881440008B9
:104350008144000881440008BD43000881440008EE
:104360008144000881440008FF430008814400089C
:1043700081440008814400083F440008FB681B6832
:10438000B968184600F01CFAFB681B689A69FB685C
:104390001B6842F008029A61FB681B689A69FB6817
:1043A0001B6822F004029A61FB681B689969BB686C
:1043B0001A69FB681B680A439A6164E0FB681B6822
:1043C000B968184600F062FAFB681B689A69FB68D6
:1043D0001B6842F400629A61FB681B689A69FB687B
:1043E0001B6822F480629A61FB681B689969BB684C
:1043F0001B691A02FB681B680A439A6143E0FB6869
:104400001B68B968184600F0ABFAFB681B68DA69EC
:10441000FB681B6842F00802DA61FB681B68DA6916
:10442000FB681B6822F00402DA61FB681B68D9692B
:10443000BB681A69FB681B680A43DA6123E0FB6802
:104440001B68B968184600F0F5FAFB681B68DA6962
:10445000FB681B6842F40062DA61FB681B68DA697A
:10446000FB681B6822F48062DA61FB681B68D9690B
:10447000BB681B691A02FB681B680A43DA6102E029
:104480000123FB7500BFFB68002283F83C20FB7D05
:1044900018461837BD4680BD80B584B000AF78603F
:1044A00039600023FB737B6893F83C30012B01D10A
:1044B0000223B4E07B68012283F83C207B6802225F
:1044C00083F83D207B681B689B68BB60BB6823F05A
:1044D0007703BB60BB6823F47F43BB607B681B68CA
:1044E000BA689A603B681B68B3F5005F3ED0B3F5CD
:1044F000005F00F28780B3F5805F00F08680B3F53F
:10450000805F7FD8702B1AD0702B7BD8602B50D057
:10451000602B77D8502B3CD0502B73D8402B58D0E1
:10452000402B6FD8302B64D0302B6BD8202B60D031
:10453000202B67D8002B5CD0102B5AD062E07B6810
:1045400018683B6899683B685A683B68DB6800F00C
:104550003DFC7B681B689B68BB60BB6843F07703CE
:10456000BB607B681B68BA689A604FE07B6818681C
:104570003B6899683B685A683B68DB6800F026FC3A
:104580007B681B689A687B681B6842F480429A606B
:104590003CE07B6818683B6859683B68DB681A46F2
:1045A00000F0EAFA7B681B685021184600F0F4FB23
:1045B0002CE07B6818683B6859683B68DB681A46E2
:1045C00000F044FB7B681B686021184600F0E4FBA8
:1045D0001CE07B6818683B6859683B68DB681A46D2
:1045E00000F0CAFA7B681B684021184600F0D4FB33
:1045F0000CE07B681A683B681B681946104600F09F
:10460000CBFB03E00123FB7300E000BF7B680122CA
:1046100083F83D207B68002283F83C20FB7B184612
:104620001037BD4680BD000080B485B000AF786013
:1046300039600023FB603B680C2B31D801A252F893
:1046400023F000BF79460008A1460008A1460008F3
:10465000A146000883460008A1460008A1460008BC
:10466000A14600088D460008A1460008A1460008A2
:10467000A1460008974600087B681B685B6BFB60DF
:104680000FE07B681B689B6BFB600AE07B681B6824
:10469000DB6BFB6005E07B681B681B6CFB6000E06C
:1046A00000BFFB6818461437BD4680BC704700BF8A
:1046B00080B483B000AF786000BF0C37BD4680BCCB
:1046C000704780B483B000AF786000BF0C37BD4640
:1046D00080BC704780B483B000AF786000BF0C37F7
:1046E000BD4680BC704780B483B000AF786000BF27
:1046F0000C37BD4680BC704780B485B000AF786091
:1047000039607B681B68FB607B682B4A934207D04B
:104710007B68B3F1804F03D07B68284A934208D16D
:10472000FB6823F07003FB603B685B68FA68134327
:10473000FB607B68204A934207D07B68B3F1804FCF
:1047400003D07B681D4A934208D1FB6823F4407371
:10475000FB603B68DB68FA681343FB60FB6823F08F
:1047600080023B685B691343FB607B68FA681A60F0
:104770003B689A687B68DA623B681A687B689A6271
:104780007B680D4A934203D13B681A697B681A63C0
:104790007B6801225A617B681B6903F00103002BCF
:1047A00005D07B681B6923F001027B681A6100BF9A
:1047B0001437BD4680BC7047002C01400004004007
:1047C00080B487B000AF786039607B681B6A7B611A
:1047D0007B681B6A23F001027B681A627B685B6856
:1047E0003B617B689B69FB60FB6823F07003FB60A7
:1047F000FB6823F00303FB603B681B68FA68134304
:10480000FB607B6923F002037B613B689B687A69EC
:1048100013437B617B681C4A93420CD17B6923F074
:1048200008037B613B68DB687A6913437B617B69C2
:1048300023F004037B617B68134A934211D13B69E7
:1048400023F480733B613B6923F400733B613B6855
:104850005B693A6913433B613B689B693A6913435F
:104860003B617B683A695A607B68FA689A613B6889
:104870005A687B685A637B687A691A6200BF1C3782
:10488000BD4680BC704700BF002C014080B487B09B
:1048900000AF786039607B681B6A7B617B681B6A4C
:1048A00023F010027B681A627B685B683B617B685F
:1048B0009B69FB60FB6823F4E043FB60FB6823F427
:1048C0004073FB603B681B681B02FA681343FB6084
:1048D0007B6923F020037B613B689B681B017A693D
:1048E00013437B617B681D4A93420DD17B6923F0A2
:1048F00080037B613B68DB681B017A6913437B6142
:104900007B6923F040037B617B68144A934213D197
:104910003B6923F480633B613B6923F400633B61A3
:104920003B685B699B003A6913433B613B689B6949
:104930009B003A6913433B617B683A695A607B6824
:10494000FA689A613B685A687B689A637B687A69FF
:104950001A6200BF1C37BD4680BC7047002C014066
:1049600080B487B000AF786039607B681B6A7B6178
:104970007B681B6A23F480727B681A627B685B68C1
:104980003B617B68DB69FB60FB6823F07003FB60C5
:10499000FB6823F00303FB603B681B68FA68134362
:1049A000FB607B6923F400737B613B689B681B029F
:1049B0007A6913437B617B681D4A93420DD17B6901
:1049C00023F400637B613B68DB681B027A69134355
:1049D0007B617B6923F480637B617B68144A93422B
:1049E00013D13B6923F480533B613B6923F40053AB
:1049F0003B613B685B691B013A6913433B613B6860
:104A00009B691B013A6913433B617B683A695A60B1
:104A10007B68FA68DA613B685A687B68DA637B68AE
:104A20007A691A6200BF1C37BD4680BC704700BF60
:104A3000002C014080B487B000AF786039607B689B
:104A40001B6A3B617B681B6A23F480527B681A6295
:104A50007B685B687B617B68DB69FB60FB6823F4D8
:104A6000E043FB60FB6823F44073FB603B681B681A
:104A70001B02FA681343FB603B6923F400533B615C
:104A80003B689B681B033A6913433B617B680F4A91
:104A9000934209D17B6923F480437B613B685B6966
:104AA0009B017A6913437B617B687A695A607B68F2
:104AB000FA68DA613B685A687B681A647B683A690D
:104AC0001A6200BF1C37BD4680BC7047002C0140F5
:104AD00080B487B000AFF860B9607A603B60FB6873
:104AE0001B6A3B61FB681B6A23F00102FB681A62C8
:104AF000FB689B697B61FB681D4A934207D0FB689A
:104B0000B3F1804F03D0FB681A4A934201D10123CD
:104B100000E00023002B08D07B6923F003037B61B6
:104B20007A697B6813437B6103E07B6943F001038F
:104B30007B617B6923F0F0037B613B681B01DBB287
:104B40007A6913437B613B6923F00A033B61BB68CD
:104B500003F00A033A6913433B61FB687A699A617F
:104B6000FB683A691A6200BF1C37BD4680BC7047BB
:104B7000002C01400004004080B487B000AFF86012
:104B8000B9607A60FB681B6A7B61FB681B6A23F073
:104B90000102FB681A62FB689B693B613B6923F079
:104BA000F0033B617B681B013A6913433B617B69FE
:104BB00023F00A037B617A69BB6813437B61FB685E
:104BC0003A699A61FB687A691A6200BF1C37BD4670
:104BD00080BC704780B487B000AFF860B9607A607D
:104BE0003B60FB681B6A7B61FB681B6A23F0100259
:104BF000FB681A62FB689B693B613B6923F4407365
:104C00003B617B681B023A6913433B613B6923F4B8
:104C100070433B613B681B039BB23A6913433B61A2
:104C20007B6923F0A0037B61BB681B0103F0A00339
:104C30007A6913437B61FB683A699A61FB687A6918
:104C40001A6200BF1C37BD4680BC704780B487B075
:104C500000AFF860B9607A60FB681B6A7B61FB6833
:104C60001B6A23F01002FB681A62FB689B693B61B8
:104C70003B6923F470433B617B681B033A69134330
:104C80003B617B6923F0A0037B61BB681B017A69F0
:104C900013437B61FB683A699A61FB687A691A621F
:104CA00000BF1C37BD4680BC704780B487B000AFE2
:104CB000F860B9607A603B60FB681B6A7B61FB68E7
:104CC0001B6A23F48072FB681A62FB68DB693B6134
:104CD0003B6923F003033B613A697B6813433B6103
:104CE0003B6923F0F0033B613B681B01DBB23A698F
:104CF00013433B617B6923F400737B61BB681B0238
:104D000003F400737A6913437B61FB683A69DA61E3
:104D1000FB687A691A6200BF1C37BD4680BC7047C9
:104D200080B487B000AFF860B9607A603B60FB6820
:104D30001B6A7B61FB681B6A23F48052FB681A6262
:104D4000FB68DB693B613B6923F440733B617B6833
:104D50001B023A6913433B613B6923F470433B6197
:104D60003B681B039BB23A6913433B617B6923F4A5
:104D700000537B61BB681B0303F400537A69134340
:104D80007B61FB683A69DA61FB687A691A6200BF85
:104D90001C37BD4680BC704780B485B000AF7860DA
:104DA00039607B689B68FB60FB6823F07003FB60E5
:104DB0003A68FB68134343F00703FB607B68FA68BB
:104DC0009A6000BF1437BD4680BC704780B487B07E
:104DD00000AFF860B9607A603B60FB689B687B61FC
:104DE0007B6923F47F437B613B681A027B681A432B
:104DF000BB6813437A6913437B61FB687A699A60E5
:104E000000BF1C37BD4680BC704780B487B000AF80
:104E1000F860B9607A60BB6803F01F03012202FAF0
:104E200003F37B61FB681A6A7B69DB431A40FB680A
:104E30001A62FB681A6ABB6803F01F03796801FAFB
:104E400003F31A43FB681A6200BF1C37BD4680BCDF
:104E50007047000080B485B000AF786039607B682F
:104E600093F83C30012B01D1022341E07B68012201
:104E700083F83C207B68022283F83D207B681B6816
:104E80005B68FB607B681B689B68BB60FB6823F00A
:104E90007003FB603B681B68FA681343FB607B6828
:104EA0001B68FA685A607B681B68144A934209D0F1
:104EB0007B681B68B3F1804F04D07B681B68104A85
:104EC00093420CD1BB6823F08003BB603B685B68F6
:104ED000BA681343BB607B681B68BA689A607B68DA
:104EE000012283F83D207B68002283F83C200023C8
:104EF00018461437BD4680BC704700BF002C0140E7
:104F00000004004080B483B000AF786000BF0C376D
:104F1000BD4680BC704780B483B000AF786000BFEE
:104F20000C37BD4680BC70470EB46FF0004100B531
:104F30009CB01DAB02900690079104910848094966
:104F400053F8042B0591006802A9019300F092F92F
:104F50000022029B1A701CB05DF804EB03B070478E
:104F60000C0000200802FFFF03460244934200D1D8
:104F7000704703F8011BF9E7014B1868704700BF41
:104F80000C00002070B500260C4D0D4C641BA410C5
:104F9000A64209D101F0EEFD00260A4D0A4C641B21
:104FA000A410A64205D170BD55F8043B98470136C0
:104FB000EEE755F8043B98470136F2E7606C0008CD
:104FC000606C0008606C0008646C000870477047F3
:104FD00038B50546002940D051F8043C0C1F002B81
:104FE000B8BFE41800F0DEF81C4A136833B96360F8
:104FF00014602846BDE8384000F0DAB8A34208D96A
:10500000206821188B4201BF19685B68091821606C
:10501000EDE71A465B680BB1A342FAD91168501844
:10502000A0420BD120680144501883421160E0D1A6
:1050300018685B68084410605360DAE702D90C23F3
:105040002B60D6E7206821188B4201BF19685B6886
:105050000918216063605460CBE738BDCC020020A2
:1050600070B50F4E0C463168054611B900F0AAFB29
:1050700030602146284600F0A5FB431C03D14FF0C9
:10508000FF34204670BDC41C24F00304A042F8D0B5
:10509000211A284600F096FB0130F2D1EFE700BF5D
:1050A000C80200202DE9F843CD1C25F00305083582
:1050B0000C2D38BF0C25002D064601DBA94204D972
:1050C0000C2333600020BDE8F883DFF8D48000F0C3
:1050D00069F8D8F800301C4644BB29463046FFF733
:1050E000BFFF431C044658D1D8F800402746002F84
:1050F00043D1002C4BD023683946304604EB0309DA
:1051000000F060FB814542D1216830466D1A294686
:10511000FFF7A6FF01303AD023682B442360D8F86C
:1051200000305A6862BBC8F800700FE02268521B5A
:1051300020D40B2A17D96119A342256018BF5960E2
:10514000636808BFC8F8001062514B60304600F039
:105150002FF804F10B00231D20F00700C21A1CBF1A
:105160001B1AA350AFE76268A3420CBFC8F8002027
:105170005A60EBE723466468AEE73C467F68B6E7D3
:105180001A465B68A342FBD100235360DEE70C2381
:105190003046336000F00CF894E70560D6E700BFB6
:1051A000CC0200200148FFF711BF00BFC40200205D
:1051B0000148FFF70CBF00BFC40200202DE9F047F3
:1051C0001F468E688246BE420C4690460B682DD81C
:1051D000B1F90C2012F4906F26D06569096905EBCE
:1051E0004505A3EB010905EBD5757B1C4B446D1000
:1051F0009D4238BF1D46530527D52946FFF752FF6C
:10520000064660B34A46216900F0FAFAA38923F4FE
:10521000906343F08003A38126614E4426603E469E
:105220006561A5EB0905A560BE4200D93E46324640
:105230004146206800F0ACFA0020A3689B1BA360E5
:10524000236833442360BDE8F0872A4600F0E6FA7D
:1052500006460028E0D150462169FFF7B9FE0C232D
:10526000CAF80030A3894FF0FF3043F04003A38118
:10527000E9E700002DE9F04F98468B8907461B06A9
:105280000D4614469DB010D50B6973B94021FFF748
:1052900009FF2860286130B90C233B604FF0FF30D4
:1052A0001DB0BDE8F08F40236B61002309932023DC
:1052B0008DF8293030234FF00109CDF80C80DFF84C
:1052C00098818DF82A3023469A4613F8012B0AB1AB
:1052D000252AF9D1BAEB040B0BD05B4622462946AE
:1052E0003846FFF76BFF013000F0A780099A5A4457
:1052F00009929AF80030002B00F09F8000234FF0B5
:10530000FF32CDE905230AF1010A049307938DF8D2
:1053100053301A935446052214F8011B4E4800F0EE
:1053200061FA049AD8B9D00644BF20238DF85330CF
:10533000110744BF2B238DF853309AF800302A2BE5
:1053400015D0544600204FF00A0C079A214611F858
:10535000013B303B092B4BD9B0B1079214E0A0EBD5
:10536000080309FA03F31343A2460493D2E7039B0D
:10537000191D1B680391002BBBBF5B4242F0020268
:1053800007930793B8BF049223782E2B0AD1637832
:105390002A2B32D1039B02341A1D1B68039243EA65
:1053A000E3730593DFF8B4A003225046217800F0A0
:1053B00019FA38B14022049BA0EB0A008240134343
:1053C0000134049314F8011B062225488DF8281097
:1053D00000F008FA002836D0224B1BBB039B073392
:1053E00023F0070308330393099B334409936AE7C7
:1053F0000C4601200CFB0232A8E700234FF00A0CF8
:10540000194601340593204610F8012B303A092A39
:1054100003D9002BC6D00591C4E7044601230CFB39
:105420000121F0E703AB00932A4638460E4B04A94E
:10543000AFF30080421C0646D6D1AB895B063FF530
:105440002DAF09982CE703AB00932A463846064B4C
:1054500004A900F07DF8EDE7FA6B0008006C000885
:10546000046C000800000000BD5100082DE9F04761
:10547000164698468A680B6907469342B8BF13469A
:10548000336091F843200C46DDF820900AB10133D7
:1054900033602368990642BF33680233336025685E
:1054A00015F0060506D104F1190AE36832689B1A63
:1054B000AB422BDC94F843302268003B18BF012339
:1054C000920630D44146384604F14302C8470130C1
:1054D00023D02368226903F00603042B14BF0025A0
:1054E00033684FF0000608BFE56804F11A0408BFEE
:1054F000ED1A54F8123C08BF25EAE5759342C4BF83
:105500009B1AED18B5421AD1002008E0012352463B
:1055100041463846C847013003D14FF0FF30BDE85F
:10552000F0870135C1E73020E11881F843005A1CAB
:1055300094F845102244023382F84310C2E7012355
:10554000224641463846C8470130E6D00136D9E701
:105550002DE9FF470F7E9146782F80460C469A46EC
:105560000C9E01F1430207D8622F0AD8002F00F0E9
:10557000D380582F00F0BA8004F1420684F84270BC
:105580003AE0A7F16303152BF6D801A151F823F0F7
:10559000E9550008FD5500087955000879550008BF
:1055A0007955000879550008FD550008795500081F
:1055B000795500087955000879550008FF5600080C
:1055C00027560008B9560008795500087955000893
:1055D000215700087955000827560008795500081A
:1055E00079550008C156000833681A1D1B683260DF
:1055F00004F1420684F8423001239EE033682068BB
:10560000191D3160060601D51D6803E04506FBD56E
:10561000B3F90050002D03DA2D236D4284F8433096
:105620000A23594811E021683368080653F8045BDF
:1056300002D4490648BFADB26F2F336014BF0A23AE
:1056400008235148002184F843106668002EA8BF43
:105650002168A660A4BF21F0040121600DB9002ECD
:105660004BD01646B5FBF3F103FB1157C75D06F8A7
:10567000017D2F46BB420D46F4D9082B0BD1236880
:10568000DF0708D5236961689942DEBF302306F839
:10569000013C06F1FF36921B22614B4621464046F3
:1056A000CDF800A003AAFFF7E1FE01304AD14FF088
:1056B000FF3004B0BDE8F087236843F02003236087
:1056C0007827324884F84570236831681F0651F8FE
:1056D000045B02D45F0648BFADB23160D90744BF56
:1056E00043F0200323601DB11023ABE72648E9E710
:1056F000236823F020032360F6E71646BDE73368EE
:105700002568181D616930602E061B6801D5196077
:1057100002E06806FBD51980002316462361BCE72A
:10572000336800211A1D32601E686268304600F03E
:1057300059F808B1801B606063682361002384F816
:105740004330AAE73246494640462369D0470130F4
:10575000ADD023689B0713D4E068039B9842B8BF81
:105760001846A6E70123324649464046D047013055
:105770009DD00135E36803995B1AAB42F2DCEBE79D
:10578000002504F11906F5E70B6C00081C6C0008F5
:10579000884210B501EB020402D98442234607D89F
:1057A000431EA14208D011F8012B03F8012FF8E79E
:1057B000014602448A4200D110BD13F8014D02F89F
:1057C000014DF7E738B50023054D044608462B6028
:1057D000FCF7E4FB431C02D12B6803B1236038BD06
:1057E000C0020020034610B5C9B2024493421846D5
:1057F00001D1002003E0047801338C42F6D110BDC2
:105800000A44914200F1FF3300D1704710B511F8FE
:10581000014B914203F8014FF9D110BD2DE9F04140
:10582000804615460C4621B91146BDE8F041FFF708
:1058300039BC2AB9FFF7CCFB00242046BDE8F08133
:1058400000F01AF88542064602D8B5EB500FF4D89E
:1058500029464046FFF726FC07460028ECD0B54213
:105860002A46214628BF3246FFF7CAFF2146404656
:10587000FFF7AEFB3C46E0E751F8043C181F002B55
:10588000BCBF0B58C0187047F8B504460D4600F071
:10589000A3F8224606460F462B4620462946FBF72C
:1058A000ADF898B90022002320462946FBF788F876
:1058B00060B10022002320462946FBF76DF840B175
:1058C000FFF75AFB22230026064F03603046394675
:1058D000F8BDFFF751FB212303600348BDE8F84002
:1058E00000F072B80000F0FFFF6B00082DE9F843EC
:1058F00014461D468046894600F0EAF822460646D0
:105900000F462B4620462946FBF778F8C8BB0022F5
:10591000002340464946FBF73FF8B8B10022002378
:1059200020462946FBF738F8002841D12046294671
:1059300000F044F828B30022002320462946FBF754
:1059400035F8F0B1FFF718FB222319E0304639464D
:1059500000F034F8C8B94046494600F02FF8A0B12D
:105960002046294600F02AF878B132463B463046B8
:105970003946FBF743F80028E4D0FFF7FDFA21236E
:10598000036030463946BDE8F883002200233046E4
:105990003946FBF701F80028F3D04046494600F0AD
:1059A0000DF80028EDD02046294600F007F8C8E79A
:1059B0000026014FE5E700BF0000F03F41F0004046
:1059C00000F58010C00F704700200149704700BFEC
:1059D0000000F87F00000000B1F5801F2DE9F843BA
:1059E00004460D460B4626DA21F00042024307D159
:1059F0000022002300203249FAF790FEBDE8F88328
:105A0000002905DA0246FAF7A7FB00220023F3E794
:105A100000222C4BFAF758FD6FF0350204460D4674
:105A20000B4629498B4208DD22462B462046294653
:105A3000FAF794FBE2E70022F3E71815A0F2FF3033
:105A400010444FEAD07900EBD070C3F31308FAF793
:105A5000D1FCC9F57F73033348EA035512A3D3E998
:105A6000002306460F46FAF72FFD8046894620465A
:105A7000294600F0CDFE0EA3D3E90023FAF724FD5A
:105A800042464B46FAF76AFB0BA3D3E900230446D0
:105A90000D4630463946FAF717FD02460B462046BA
:105AA0002946C5E7AFF30080362BF111F3FE593DCF
:105AB0000EE526157BCBDB3F00609F501344D33FA0
:105AC000000050C300005043FFFFEF7F00000000C4
:105AD0002DE9F04F91B0CDE900238B46DDE90018A8
